{
  "_format": "hh-sol-artifact-1",
  "contractName": "GenesisNFT",
  "sourceName": "contracts/GenesisNFT.sol",
  "abi": [
    {
      "inputs": [
        {
          "internalType": "address",
          "name": "_usdtToken",
          "type": "address"
        },
        {
          "internalType": "address",
          "name": "_fundWallet",
          "type": "address"
        },
        {
          "internalType": "address",
          "name": "_teamWallet",
          "type": "address"
        }
      ],
      "stateMutability": "nonpayable",
      "type": "constructor"
    },
    {
      "inputs": [
        {
          "internalType": "address",
          "name": "sender",
          "type": "address"
        },
        {
          "internalType": "uint256",
          "name": "tokenId",
          "type": "uint256"
        },
        {
          "internalType": "address",
          "name": "owner",
          "type": "address"
        }
      ],
      "name": "ERC721IncorrectOwner",
      "type": "error"
    },
    {
      "inputs": [
        {
          "internalType": "address",
          "name": "operator",
          "type": "address"
        },
        {
          "internalType": "uint256",
          "name": "tokenId",
          "type": "uint256"
        }
      ],
      "name": "ERC721InsufficientApproval",
      "type": "error"
    },
    {
      "inputs": [
        {
          "internalType": "address",
          "name": "approver",
          "type": "address"
        }
      ],
      "name": "ERC721InvalidApprover",
      "type": "error"
    },
    {
      "inputs": [
        {
          "internalType": "address",
          "name": "operator",
          "type": "address"
        }
      ],
      "name": "ERC721InvalidOperator",
      "type": "error"
    },
    {
      "inputs": [
        {
          "internalType": "address",
          "name": "owner",
          "type": "address"
        }
      ],
      "name": "ERC721InvalidOwner",
      "type": "error"
    },
    {
      "inputs": [
        {
          "internalType": "address",
          "name": "receiver",
          "type": "address"
        }
      ],
      "name": "ERC721InvalidReceiver",
      "type": "error"
    },
    {
      "inputs": [
        {
          "internalType": "address",
          "name": "sender",
          "type": "address"
        }
      ],
      "name": "ERC721InvalidSender",
      "type": "error"
    },
    {
      "inputs": [
        {
          "internalType": "uint256",
          "name": "tokenId",
          "type": "uint256"
        }
      ],
      "name": "ERC721NonexistentToken",
      "type": "error"
    },
    {
      "inputs": [
        {
          "internalType": "address",
          "name": "owner",
          "type": "address"
        }
      ],
      "name": "OwnableInvalidOwner",
      "type": "error"
    },
    {
      "inputs": [
        {
          "internalType": "address",
          "name": "account",
          "type": "address"
        }
      ],
      "name": "OwnableUnauthorizedAccount",
      "type": "error"
    },
    {
      "inputs": [],
      "name": "ReentrancyGuardReentrantCall",
      "type": "error"
    },
    {
      "anonymous": false,
      "inputs": [
        {
          "indexed": true,
          "internalType": "address",
          "name": "owner",
          "type": "address"
        },
        {
          "indexed": true,
          "internalType": "address",
          "name": "approved",
          "type": "address"
        },
        {
          "indexed": true,
          "internalType": "uint256",
          "name": "tokenId",
          "type": "uint256"
        }
      ],
      "name": "Approval",
      "type": "event"
    },
    {
      "anonymous": false,
      "inputs": [
        {
          "indexed": true,
          "internalType": "address",
          "name": "owner",
          "type": "address"
        },
        {
          "indexed": true,
          "internalType": "address",
          "name": "operator",
          "type": "address"
        },
        {
          "indexed": false,
          "internalType": "bool",
          "name": "approved",
          "type": "bool"
        }
      ],
      "name": "ApprovalForAll",
      "type": "event"
    },
    {
      "anonymous": false,
      "inputs": [
        {
          "indexed": true,
          "internalType": "address",
          "name": "user",
          "type": "address"
        },
        {
          "indexed": false,
          "internalType": "uint256",
          "name": "tokenId",
          "type": "uint256"
        },
        {
          "indexed": false,
          "internalType": "address",
          "name": "referrer",
          "type": "address"
        }
      ],
      "name": "NFTMinted",
      "type": "event"
    },
    {
      "anonymous": false,
      "inputs": [
        {
          "indexed": true,
          "internalType": "address",
          "name": "previousOwner",
          "type": "address"
        },
        {
          "indexed": true,
          "internalType": "address",
          "name": "newOwner",
          "type": "address"
        }
      ],
      "name": "OwnershipTransferred",
      "type": "event"
    },
    {
      "anonymous": false,
      "inputs": [
        {
          "indexed": true,
          "internalType": "address",
          "name": "from",
          "type": "address"
        },
        {
          "indexed": true,
          "internalType": "address",
          "name": "to",
          "type": "address"
        },
        {
          "indexed": true,
          "internalType": "uint256",
          "name": "tokenId",
          "type": "uint256"
        }
      ],
      "name": "Transfer",
      "type": "event"
    },
    {
      "inputs": [],
      "name": "MAX_SUPPLY",
      "outputs": [
        {
          "internalType": "uint256",
          "name": "",
          "type": "uint256"
        }
      ],
      "stateMutability": "view",
      "type": "function"
    },
    {
      "inputs": [],
      "name": "PRICE",
      "outputs": [
        {
          "internalType": "uint256",
          "name": "",
          "type": "uint256"
        }
      ],
      "stateMutability": "view",
      "type": "function"
    },
    {
      "inputs": [
        {
          "internalType": "address",
          "name": "to",
          "type": "address"
        },
        {
          "internalType": "uint256",
          "name": "tokenId",
          "type": "uint256"
        }
      ],
      "name": "approve",
      "outputs": [],
      "stateMutability": "nonpayable",
      "type": "function"
    },
    {
      "inputs": [
        {
          "internalType": "address",
          "name": "owner",
          "type": "address"
        }
      ],
      "name": "balanceOf",
      "outputs": [
        {
          "internalType": "uint256",
          "name": "",
          "type": "uint256"
        }
      ],
      "stateMutability": "view",
      "type": "function"
    },
    {
      "inputs": [],
      "name": "fundWallet",
      "outputs": [
        {
          "internalType": "address",
          "name": "",
          "type": "address"
        }
      ],
      "stateMutability": "view",
      "type": "function"
    },
    {
      "inputs": [
        {
          "internalType": "uint256",
          "name": "tokenId",
          "type": "uint256"
        }
      ],
      "name": "getApproved",
      "outputs": [
        {
          "internalType": "address",
          "name": "",
          "type": "address"
        }
      ],
      "stateMutability": "view",
      "type": "function"
    },
    {
      "inputs": [
        {
          "internalType": "address",
          "name": "",
          "type": "address"
        }
      ],
      "name": "hasMinted",
      "outputs": [
        {
          "internalType": "bool",
          "name": "",
          "type": "bool"
        }
      ],
      "stateMutability": "view",
      "type": "function"
    },
    {
      "inputs": [
        {
          "internalType": "address",
          "name": "owner",
          "type": "address"
        },
        {
          "internalType": "address",
          "name": "operator",
          "type": "address"
        }
      ],
      "name": "isApprovedForAll",
      "outputs": [
        {
          "internalType": "bool",
          "name": "",
          "type": "bool"
        }
      ],
      "stateMutability": "view",
      "type": "function"
    },
    {
      "inputs": [
        {
          "internalType": "address",
          "name": "referrer",
          "type": "address"
        }
      ],
      "name": "mint",
      "outputs": [],
      "stateMutability": "nonpayable",
      "type": "function"
    },
    {
      "inputs": [],
      "name": "name",
      "outputs": [
        {
          "internalType": "string",
          "name": "",
          "type": "string"
        }
      ],
      "stateMutability": "view",
      "type": "function"
    },
    {
      "inputs": [],
      "name": "owner",
      "outputs": [
        {
          "internalType": "address",
          "name": "",
          "type": "address"
        }
      ],
      "stateMutability": "view",
      "type": "function"
    },
    {
      "inputs": [
        {
          "internalType": "uint256",
          "name": "tokenId",
          "type": "uint256"
        }
      ],
      "name": "ownerOf",
      "outputs": [
        {
          "internalType": "address",
          "name": "",
          "type": "address"
        }
      ],
      "stateMutability": "view",
      "type": "function"
    },
    {
      "inputs": [
        {
          "internalType": "address",
          "name": "",
          "type": "address"
        }
      ],
      "name": "referrers",
      "outputs": [
        {
          "internalType": "address",
          "name": "",
          "type": "address"
        }
      ],
      "stateMutability": "view",
      "type": "function"
    },
    {
      "inputs": [],
      "name": "renounceOwnership",
      "outputs": [],
      "stateMutability": "nonpayable",
      "type": "function"
    },
    {
      "inputs": [
        {
          "internalType": "address",
          "name": "from",
          "type": "address"
        },
        {
          "internalType": "address",
          "name": "to",
          "type": "address"
        },
        {
          "internalType": "uint256",
          "name": "tokenId",
          "type": "uint256"
        }
      ],
      "name": "safeTransferFrom",
      "outputs": [],
      "stateMutability": "nonpayable",
      "type": "function"
    },
    {
      "inputs": [
        {
          "internalType": "address",
          "name": "from",
          "type": "address"
        },
        {
          "internalType": "address",
          "name": "to",
          "type": "address"
        },
        {
          "internalType": "uint256",
          "name": "tokenId",
          "type": "uint256"
        },
        {
          "internalType": "bytes",
          "name": "data",
          "type": "bytes"
        }
      ],
      "name": "safeTransferFrom",
      "outputs": [],
      "stateMutability": "nonpayable",
      "type": "function"
    },
    {
      "inputs": [
        {
          "internalType": "address",
          "name": "operator",
          "type": "address"
        },
        {
          "internalType": "bool",
          "name": "approved",
          "type": "bool"
        }
      ],
      "name": "setApprovalForAll",
      "outputs": [],
      "stateMutability": "nonpayable",
      "type": "function"
    },
    {
      "inputs": [
        {
          "internalType": "bytes4",
          "name": "interfaceId",
          "type": "bytes4"
        }
      ],
      "name": "supportsInterface",
      "outputs": [
        {
          "internalType": "bool",
          "name": "",
          "type": "bool"
        }
      ],
      "stateMutability": "view",
      "type": "function"
    },
    {
      "inputs": [],
      "name": "symbol",
      "outputs": [
        {
          "internalType": "string",
          "name": "",
          "type": "string"
        }
      ],
      "stateMutability": "view",
      "type": "function"
    },
    {
      "inputs": [],
      "name": "teamWallet",
      "outputs": [
        {
          "internalType": "address",
          "name": "",
          "type": "address"
        }
      ],
      "stateMutability": "view",
      "type": "function"
    },
    {
      "inputs": [
        {
          "internalType": "uint256",
          "name": "tokenId",
          "type": "uint256"
        }
      ],
      "name": "tokenURI",
      "outputs": [
        {
          "internalType": "string",
          "name": "",
          "type": "string"
        }
      ],
      "stateMutability": "view",
      "type": "function"
    },
    {
      "inputs": [],
      "name": "totalSupply",
      "outputs": [
        {
          "internalType": "uint256",
          "name": "",
          "type": "uint256"
        }
      ],
      "stateMutability": "view",
      "type": "function"
    },
    {
      "inputs": [
        {
          "internalType": "address",
          "name": "from",
          "type": "address"
        },
        {
          "internalType": "address",
          "name": "to",
          "type": "address"
        },
        {
          "internalType": "uint256",
          "name": "tokenId",
          "type": "uint256"
        }
      ],
      "name": "transferFrom",
      "outputs": [],
      "stateMutability": "nonpayable",
      "type": "function"
    },
    {
      "inputs": [
        {
          "internalType": "address",
          "name": "newOwner",
          "type": "address"
        }
      ],
      "name": "transferOwnership",
      "outputs": [],
      "stateMutability": "nonpayable",
      "type": "function"
    },
    {
      "inputs": [],
      "name": "usdtToken",
      "outputs": [
        {
          "internalType": "contract IERC20",
          "name": "",
          "type": "address"
        }
      ],
      "stateMutability": "view",
      "type": "function"
    }
  ],
  "bytecode": "0x60806040523480156200001157600080fd5b5060405162003b0438038062003b048339818101604052810190620000379190620004ab565b336040518060400160405280601181526020017f424d49432047656e6573697320436172640000000000000000000000000000008152506040518060400160405280600681526020017f424d49432d4700000000000000000000000000000000000000000000000000008152508160009081620000b5919062000781565b508060019081620000c7919062000781565b505050600073ffffffffffffffffffffffffffffffffffffffff168173ffffffffffffffffffffffffffffffffffffffff16036200013f5760006040517f1e4fbdf700000000000000000000000000000000000000000000000000000000815260040162000136919062000879565b60405180910390fd5b62000150816200037b60201b60201c565b506001600781905550600073ffffffffffffffffffffffffffffffffffffffff168373ffffffffffffffffffffffffffffffffffffffff1603620001cb576040517f08c379a0000000000000000000000000000000000000000000000000000000008152600401620001c290620008f7565b60405180910390fd5b600073ffffffffffffffffffffffffffffffffffffffff168273ffffffffffffffffffffffffffffffffffffffff16036200023d576040517f08c379a0000000000000000000000000000000000000000000000000000000008152600401620002349062000969565b60405180910390fd5b600073ffffffffffffffffffffffffffffffffffffffff168173ffffffffffffffffffffffffffffffffffffffff1603620002af576040517f08c379a0000000000000000000000000000000000000000000000000000000008152600401620002a690620009db565b60405180910390fd5b82600860006101000a81548173ffffffffffffffffffffffffffffffffffffffff021916908373ffffffffffffffffffffffffffffffffffffffff16021790555081600960006101000a81548173ffffffffffffffffffffffffffffffffffffffff021916908373ffffffffffffffffffffffffffffffffffffffff16021790555080600a60006101000a81548173ffffffffffffffffffffffffffffffffffffffff021916908373ffffffffffffffffffffffffffffffffffffffff160217905550505050620009fd565b6000600660009054906101000a900473ffffffffffffffffffffffffffffffffffffffff16905081600660006101000a81548173ffffffffffffffffffffffffffffffffffffffff021916908373ffffffffffffffffffffffffffffffffffffffff1602179055508173ffffffffffffffffffffffffffffffffffffffff168173ffffffffffffffffffffffffffffffffffffffff167f8be0079c531659141344cd1fd0a4f28419497f9722a3daafe3b4186f6b6457e060405160405180910390a35050565b600080fd5b600073ffffffffffffffffffffffffffffffffffffffff82169050919050565b6000620004738262000446565b9050919050565b620004858162000466565b81146200049157600080fd5b50565b600081519050620004a5816200047a565b92915050565b600080600060608486031215620004c757620004c662000441565b5b6000620004d78682870162000494565b9350506020620004ea8682870162000494565b9250506040620004fd8682870162000494565b9150509250925092565b600081519050919050565b7f4e487b7100000000000000000000000000000000000000000000000000000000600052604160045260246000fd5b7f4e487b7100000000000000000000000000000000000000000000000000000000600052602260045260246000fd5b600060028204905060018216806200058957607f821691505b6020821081036200059f576200059e62000541565b5b50919050565b60008190508160005260206000209050919050565b60006020601f8301049050919050565b600082821b905092915050565b600060088302620006097fffffffffffffffffffffffffffffffffffffffffffffffffffffffffffffffff82620005ca565b620006158683620005ca565b95508019841693508086168417925050509392505050565b6000819050919050565b6000819050919050565b6000620006626200065c62000656846200062d565b62000637565b6200062d565b9050919050565b6000819050919050565b6200067e8362000641565b620006966200068d8262000669565b848454620005d7565b825550505050565b600090565b620006ad6200069e565b620006ba81848462000673565b505050565b5b81811015620006e257620006d6600082620006a3565b600181019050620006c0565b5050565b601f8211156200073157620006fb81620005a5565b6200070684620005ba565b8101602085101562000716578190505b6200072e6200072585620005ba565b830182620006bf565b50505b505050565b600082821c905092915050565b6000620007566000198460080262000736565b1980831691505092915050565b600062000771838362000743565b9150826002028217905092915050565b6200078c8262000507565b67ffffffffffffffff811115620007a857620007a762000512565b5b620007b4825462000570565b620007c1828285620006e6565b600060209050601f831160018114620007f95760008415620007e4578287015190505b620007f0858262000763565b86555062000860565b601f1984166200080986620005a5565b60005b8281101562000833578489015182556001820191506020850194506020810190506200080c565b868310156200085357848901516200084f601f89168262000743565b8355505b6001600288020188555050505b505050505050565b620008738162000466565b82525050565b600060208201905062000890600083018462000868565b92915050565b600082825260208201905092915050565b7f496e76616c696420555344540000000000000000000000000000000000000000600082015250565b6000620008df600c8362000896565b9150620008ec82620008a7565b602082019050919050565b600060208201905081810360008301526200091281620008d0565b9050919050565b7f496e76616c69642046756e642057616c6c657400000000000000000000000000600082015250565b60006200095160138362000896565b91506200095e8262000919565b602082019050919050565b60006020820190508181036000830152620009848162000942565b9050919050565b7f496e76616c6964205465616d2057616c6c657400000000000000000000000000600082015250565b6000620009c360138362000896565b9150620009d0826200098b565b602082019050919050565b60006020820190508181036000830152620009f681620009b4565b9050919050565b6130f78062000a0d6000396000f3fe608060405234801561001057600080fd5b50600436106101735760003560e01c8063664a1ad6116100de57806395d89b4111610097578063b88d4fde11610071578063b88d4fde1461043c578063c87b56dd14610458578063e985e9c514610488578063f2fde38b146104b857610173565b806395d89b41146103e4578063a22cb46514610402578063a98ad46c1461041e57610173565b8063664a1ad6146103345780636a6278421461035257806370a082311461036e578063715018a61461039e5780638d859f3e146103a85780638da5cb5b146103c657610173565b806332cb6b0c1161013057806332cb6b0c1461024c57806338e21cce1461026a57806342842e0e1461029a5780634a3b68cc146102b657806359927044146102e65780636352211e1461030457610173565b806301ffc9a71461017857806306fdde03146101a8578063081812fc146101c6578063095ea7b3146101f657806318160ddd1461021257806323b872dd14610230575b600080fd5b610192600480360381019061018d919061248e565b6104d4565b60405161019f91906124d6565b60405180910390f35b6101b06105b6565b6040516101bd9190612581565b60405180910390f35b6101e060048036038101906101db91906125d9565b610648565b6040516101ed9190612647565b60405180910390f35b610210600480360381019061020b919061268e565b610664565b005b61021a61067a565b60405161022791906126dd565b60405180910390f35b61024a600480360381019061024591906126f8565b610680565b005b610254610782565b60405161026191906126dd565b60405180910390f35b610284600480360381019061027f919061274b565b610788565b60405161029191906124d6565b60405180910390f35b6102b460048036038101906102af91906126f8565b6107a8565b005b6102d060048036038101906102cb919061274b565b6107c8565b6040516102dd9190612647565b60405180910390f35b6102ee6107fb565b6040516102fb9190612647565b60405180910390f35b61031e600480360381019061031991906125d9565b610821565b60405161032b9190612647565b60405180910390f35b61033c610833565b6040516103499190612647565b60405180910390f35b61036c6004803603810190610367919061274b565b610859565b005b6103886004803603810190610383919061274b565b6110c0565b60405161039591906126dd565b60405180910390f35b6103a661117a565b005b6103b061118e565b6040516103bd91906126dd565b60405180910390f35b6103ce61119b565b6040516103db9190612647565b60405180910390f35b6103ec6111c5565b6040516103f99190612581565b60405180910390f35b61041c600480360381019061041791906127a4565b611257565b005b61042661126d565b6040516104339190612843565b60405180910390f35b61045660048036038101906104519190612993565b611293565b005b610472600480360381019061046d91906125d9565b6112b8565b60405161047f9190612581565b60405180910390f35b6104a2600480360381019061049d9190612a16565b611321565b6040516104af91906124d6565b60405180910390f35b6104d260048036038101906104cd919061274b565b6113b5565b005b60007f80ac58cd000000000000000000000000000000000000000000000000000000007bffffffffffffffffffffffffffffffffffffffffffffffffffffffff1916827bffffffffffffffffffffffffffffffffffffffffffffffffffffffff1916148061059f57507f5b5e139f000000000000000000000000000000000000000000000000000000007bffffffffffffffffffffffffffffffffffffffffffffffffffffffff1916827bffffffffffffffffffffffffffffffffffffffffffffffffffffffff1916145b806105af57506105ae8261143b565b5b9050919050565b6060600080546105c590612a85565b80601f01602080910402602001604051908101604052809291908181526020018280546105f190612a85565b801561063e5780601f106106135761010080835404028352916020019161063e565b820191906000526020600020905b81548152906001019060200180831161062157829003601f168201915b5050505050905090565b6000610653826114a5565b5061065d8261152d565b9050919050565b610676828261067161156a565b611572565b5050565b600b5481565b600073ffffffffffffffffffffffffffffffffffffffff168273ffffffffffffffffffffffffffffffffffffffff16036106f25760006040517f64a0ae920000000000000000000000000000000000000000000000000000000081526004016106e99190612647565b60405180910390fd5b6000610706838361070161156a565b611584565b90508373ffffffffffffffffffffffffffffffffffffffff168173ffffffffffffffffffffffffffffffffffffffff161461077c578382826040517f64283d7b00000000000000000000000000000000000000000000000000000000815260040161077393929190612ab6565b60405180910390fd5b50505050565b61177081565b600d6020528060005260406000206000915054906101000a900460ff1681565b6107c383838360405180602001604052806000815250611293565b505050565b600c6020528060005260406000206000915054906101000a900473ffffffffffffffffffffffffffffffffffffffff1681565b600a60009054906101000a900473ffffffffffffffffffffffffffffffffffffffff1681565b600061082c826114a5565b9050919050565b600960009054906101000a900473ffffffffffffffffffffffffffffffffffffffff1681565b610861611651565b611770600b54106108a7576040517f08c379a000000000000000000000000000000000000000000000000000000000815260040161089e90612b39565b60405180910390fd5b600d60003373ffffffffffffffffffffffffffffffffffffffff1673ffffffffffffffffffffffffffffffffffffffff16815260200190815260200160002060009054906101000a900460ff1615610934576040517f08c379a000000000000000000000000000000000000000000000000000000000815260040161092b90612ba5565b60405180910390fd5b3373ffffffffffffffffffffffffffffffffffffffff168173ffffffffffffffffffffffffffffffffffffffff16036109a2576040517f08c379a000000000000000000000000000000000000000000000000000000000815260040161099990612c11565b60405180910390fd5b60006064603c680ad78ebc5ac62000006109bc9190612c60565b6109c69190612cd1565b905060006064601e680ad78ebc5ac62000006109e29190612c60565b6109ec9190612cd1565b905060006064600a680ad78ebc5ac6200000610a089190612c60565b610a129190612cd1565b90506000600860009054906101000a900473ffffffffffffffffffffffffffffffffffffffff1673ffffffffffffffffffffffffffffffffffffffff1663dd62ed3e33306040518363ffffffff1660e01b8152600401610a73929190612d02565b602060405180830381865afa158015610a90573d6000803e3d6000fd5b505050506040513d601f19601f82011682018060405250810190610ab49190612d40565b9050680ad78ebc5ac6200000811015610b02576040517f08c379a0000000000000000000000000000000000000000000000000000000008152600401610af990612db9565b60405180910390fd5b600860009054906101000a900473ffffffffffffffffffffffffffffffffffffffff1673ffffffffffffffffffffffffffffffffffffffff166323b872dd33600960009054906101000a900473ffffffffffffffffffffffffffffffffffffffff16876040518463ffffffff1660e01b8152600401610b8393929190612dd9565b6020604051808303816000875af1158015610ba2573d6000803e3d6000fd5b505050506040513d601f19601f82011682018060405250810190610bc69190612e25565b50600860009054906101000a900473ffffffffffffffffffffffffffffffffffffffff1673ffffffffffffffffffffffffffffffffffffffff166323b872dd33600a60009054906101000a900473ffffffffffffffffffffffffffffffffffffffff16866040518463ffffffff1660e01b8152600401610c4893929190612dd9565b6020604051808303816000875af1158015610c67573d6000803e3d6000fd5b505050506040513d601f19601f82011682018060405250810190610c8b9190612e25565b50600073ffffffffffffffffffffffffffffffffffffffff16600c60003373ffffffffffffffffffffffffffffffffffffffff1673ffffffffffffffffffffffffffffffffffffffff16815260200190815260200160002060009054906101000a900473ffffffffffffffffffffffffffffffffffffffff1673ffffffffffffffffffffffffffffffffffffffff16148015610d545750600073ffffffffffffffffffffffffffffffffffffffff168573ffffffffffffffffffffffffffffffffffffffff1614155b15610dd85784600c60003373ffffffffffffffffffffffffffffffffffffffff1673ffffffffffffffffffffffffffffffffffffffff16815260200190815260200160002060006101000a81548173ffffffffffffffffffffffffffffffffffffffff021916908373ffffffffffffffffffffffffffffffffffffffff1602179055505b6000600c60003373ffffffffffffffffffffffffffffffffffffffff1673ffffffffffffffffffffffffffffffffffffffff16815260200190815260200160002060009054906101000a900473ffffffffffffffffffffffffffffffffffffffff169050600073ffffffffffffffffffffffffffffffffffffffff168173ffffffffffffffffffffffffffffffffffffffff1614610f1857600860009054906101000a900473ffffffffffffffffffffffffffffffffffffffff1673ffffffffffffffffffffffffffffffffffffffff166323b872dd3383866040518463ffffffff1660e01b8152600401610ecf93929190612dd9565b6020604051808303816000875af1158015610eee573d6000803e3d6000fd5b505050506040513d601f19601f82011682018060405250810190610f129190612e25565b50610fde565b600860009054906101000a900473ffffffffffffffffffffffffffffffffffffffff1673ffffffffffffffffffffffffffffffffffffffff166323b872dd33600960009054906101000a900473ffffffffffffffffffffffffffffffffffffffff16866040518463ffffffff1660e01b8152600401610f9993929190612dd9565b6020604051808303816000875af1158015610fb8573d6000803e3d6000fd5b505050506040513d601f19601f82011682018060405250810190610fdc9190612e25565b505b6001600d60003373ffffffffffffffffffffffffffffffffffffffff1673ffffffffffffffffffffffffffffffffffffffff16815260200190815260200160002060006101000a81548160ff021916908315150217905550600b600081548092919061104990612e52565b91905055506000600b54905061105f3382611697565b3373ffffffffffffffffffffffffffffffffffffffff167f89a2c92e65780856b461f06435fffd0fb445240ba3cfee7e8f18e01dca40c07382846040516110a7929190612e9a565b60405180910390a25050505050506110bd6116b5565b50565b60008073ffffffffffffffffffffffffffffffffffffffff168273ffffffffffffffffffffffffffffffffffffffff16036111335760006040517f89c62b6400000000000000000000000000000000000000000000000000000000815260040161112a9190612647565b60405180910390fd5b600360008373ffffffffffffffffffffffffffffffffffffffff1673ffffffffffffffffffffffffffffffffffffffff168152602001908152602001600020549050919050565b6111826116bf565b61118c6000611746565b565b680ad78ebc5ac620000081565b6000600660009054906101000a900473ffffffffffffffffffffffffffffffffffffffff16905090565b6060600180546111d490612a85565b80601f016020809104026020016040519081016040528092919081815260200182805461120090612a85565b801561124d5780601f106112225761010080835404028352916020019161124d565b820191906000526020600020905b81548152906001019060200180831161123057829003601f168201915b5050505050905090565b61126961126261156a565b838361180c565b5050565b600860009054906101000a900473ffffffffffffffffffffffffffffffffffffffff1681565b61129e848484610680565b6112b26112a961156a565b8585858561197b565b50505050565b60606112c3826114a5565b5060006112ce611b2c565b905060008151116112ee5760405180602001604052806000815250611319565b806112f884611b43565b604051602001611309929190612eff565b6040516020818303038152906040525b915050919050565b6000600560008473ffffffffffffffffffffffffffffffffffffffff1673ffffffffffffffffffffffffffffffffffffffff16815260200190815260200160002060008373ffffffffffffffffffffffffffffffffffffffff1673ffffffffffffffffffffffffffffffffffffffff16815260200190815260200160002060009054906101000a900460ff16905092915050565b6113bd6116bf565b600073ffffffffffffffffffffffffffffffffffffffff168173ffffffffffffffffffffffffffffffffffffffff160361142f5760006040517f1e4fbdf70000000000000000000000000000000000000000000000000000000081526004016114269190612647565b60405180910390fd5b61143881611746565b50565b60007f01ffc9a7000000000000000000000000000000000000000000000000000000007bffffffffffffffffffffffffffffffffffffffffffffffffffffffff1916827bffffffffffffffffffffffffffffffffffffffffffffffffffffffff1916149050919050565b6000806114b183611c11565b9050600073ffffffffffffffffffffffffffffffffffffffff168173ffffffffffffffffffffffffffffffffffffffff160361152457826040517f7e27328900000000000000000000000000000000000000000000000000000000815260040161151b91906126dd565b60405180910390fd5b80915050919050565b60006004600083815260200190815260200160002060009054906101000a900473ffffffffffffffffffffffffffffffffffffffff169050919050565b600033905090565b61157f8383836001611c4e565b505050565b60008061159084611c11565b9050600073ffffffffffffffffffffffffffffffffffffffff168173ffffffffffffffffffffffffffffffffffffffff16141580156115fc5750600073ffffffffffffffffffffffffffffffffffffffff168573ffffffffffffffffffffffffffffffffffffffff1614155b1561163c576040517f08c379a000000000000000000000000000000000000000000000000000000000815260040161163390612f95565b60405180910390fd5b611647858585611e13565b9150509392505050565b60026007540361168d576040517f3ee5aeb500000000000000000000000000000000000000000000000000000000815260040160405180910390fd5b6002600781905550565b6116b182826040518060200160405280600081525061202d565b5050565b6001600781905550565b6116c761156a565b73ffffffffffffffffffffffffffffffffffffffff166116e561119b565b73ffffffffffffffffffffffffffffffffffffffff16146117445761170861156a565b6040517f118cdaa700000000000000000000000000000000000000000000000000000000815260040161173b9190612647565b60405180910390fd5b565b6000600660009054906101000a900473ffffffffffffffffffffffffffffffffffffffff16905081600660006101000a81548173ffffffffffffffffffffffffffffffffffffffff021916908373ffffffffffffffffffffffffffffffffffffffff1602179055508173ffffffffffffffffffffffffffffffffffffffff168173ffffffffffffffffffffffffffffffffffffffff167f8be0079c531659141344cd1fd0a4f28419497f9722a3daafe3b4186f6b6457e060405160405180910390a35050565b600073ffffffffffffffffffffffffffffffffffffffff168273ffffffffffffffffffffffffffffffffffffffff160361187d57816040517f5b08ba180000000000000000000000000000000000000000000000000000000081526004016118749190612647565b60405180910390fd5b80600560008573ffffffffffffffffffffffffffffffffffffffff1673ffffffffffffffffffffffffffffffffffffffff16815260200190815260200160002060008473ffffffffffffffffffffffffffffffffffffffff1673ffffffffffffffffffffffffffffffffffffffff16815260200190815260200160002060006101000a81548160ff0219169083151502179055508173ffffffffffffffffffffffffffffffffffffffff168373ffffffffffffffffffffffffffffffffffffffff167f17307eab39ab6107e8899845ad3d59bd9653f200f220920489ca2b5937696c318360405161196e91906124d6565b60405180910390a3505050565b60008373ffffffffffffffffffffffffffffffffffffffff163b1115611b25578273ffffffffffffffffffffffffffffffffffffffff1663150b7a02868685856040518563ffffffff1660e01b81526004016119da949392919061300a565b6020604051808303816000875af1925050508015611a1657506040513d601f19601f82011682018060405250810190611a13919061306b565b60015b611a9a573d8060008114611a46576040519150601f19603f3d011682016040523d82523d6000602084013e611a4b565b606091505b506000815103611a9257836040517f64a0ae92000000000000000000000000000000000000000000000000000000008152600401611a899190612647565b60405180910390fd5b805160208201fd5b63150b7a0260e01b7bffffffffffffffffffffffffffffffffffffffffffffffffffffffff1916817bffffffffffffffffffffffffffffffffffffffffffffffffffffffff191614611b2357836040517f64a0ae92000000000000000000000000000000000000000000000000000000008152600401611b1a9190612647565b60405180910390fd5b505b5050505050565b606060405180602001604052806000815250905090565b606060006001611b5284612051565b01905060008167ffffffffffffffff811115611b7157611b70612868565b5b6040519080825280601f01601f191660200182016040528015611ba35781602001600182028036833780820191505090505b509050600082602083010190505b600115611c06578080600190039150507f3031323334353637383961626364656600000000000000000000000000000000600a86061a8153600a8581611bfa57611bf9612ca2565b5b04945060008503611bb1575b819350505050919050565b60006002600083815260200190815260200160002060009054906101000a900473ffffffffffffffffffffffffffffffffffffffff169050919050565b8080611c875750600073ffffffffffffffffffffffffffffffffffffffff168273ffffffffffffffffffffffffffffffffffffffff1614155b15611dbb576000611c97846114a5565b9050600073ffffffffffffffffffffffffffffffffffffffff168373ffffffffffffffffffffffffffffffffffffffff1614158015611d0257508273ffffffffffffffffffffffffffffffffffffffff168173ffffffffffffffffffffffffffffffffffffffff1614155b8015611d155750611d138184611321565b155b15611d5757826040517fa9fbf51f000000000000000000000000000000000000000000000000000000008152600401611d4e9190612647565b60405180910390fd5b8115611db957838573ffffffffffffffffffffffffffffffffffffffff168273ffffffffffffffffffffffffffffffffffffffff167f8c5be1e5ebec7d5bd14f71427d1e84f3dd0314c0f7b2291e5b200ac8c7c3b92560405160405180910390a45b505b836004600085815260200190815260200160002060006101000a81548173ffffffffffffffffffffffffffffffffffffffff021916908373ffffffffffffffffffffffffffffffffffffffff16021790555050505050565b600080611e1f84611c11565b9050600073ffffffffffffffffffffffffffffffffffffffff168373ffffffffffffffffffffffffffffffffffffffff1614611e6157611e608184866121a4565b5b600073ffffffffffffffffffffffffffffffffffffffff168173ffffffffffffffffffffffffffffffffffffffff1614611ef257611ea3600085600080611c4e565b6001600360008373ffffffffffffffffffffffffffffffffffffffff1673ffffffffffffffffffffffffffffffffffffffff168152602001908152602001600020600082825403925050819055505b600073ffffffffffffffffffffffffffffffffffffffff168573ffffffffffffffffffffffffffffffffffffffff1614611f75576001600360008773ffffffffffffffffffffffffffffffffffffffff1673ffffffffffffffffffffffffffffffffffffffff168152602001908152602001600020600082825401925050819055505b846002600086815260200190815260200160002060006101000a81548173ffffffffffffffffffffffffffffffffffffffff021916908373ffffffffffffffffffffffffffffffffffffffff160217905550838573ffffffffffffffffffffffffffffffffffffffff168273ffffffffffffffffffffffffffffffffffffffff167fddf252ad1be2c89b69c2b068fc378daa952ba7f163c4a11628f55a4df523b3ef60405160405180910390a4809150509392505050565b6120378383612268565b61204c61204261156a565b600085858561197b565b505050565b600080600090507a184f03e93ff9f4daa797ed6e38ed64bf6a1f01000000000000000083106120af577a184f03e93ff9f4daa797ed6e38ed64bf6a1f01000000000000000083816120a5576120a4612ca2565b5b0492506040810190505b6d04ee2d6d415b85acef810000000083106120ec576d04ee2d6d415b85acef810000000083816120e2576120e1612ca2565b5b0492506020810190505b662386f26fc10000831061211b57662386f26fc10000838161211157612110612ca2565b5b0492506010810190505b6305f5e1008310612144576305f5e100838161213a57612139612ca2565b5b0492506008810190505b612710831061216957612710838161215f5761215e612ca2565b5b0492506004810190505b6064831061218c576064838161218257612181612ca2565b5b0492506002810190505b600a831061219b576001810190505b80915050919050565b6121af838383612361565b61226357600073ffffffffffffffffffffffffffffffffffffffff168373ffffffffffffffffffffffffffffffffffffffff160361222457806040517f7e27328900000000000000000000000000000000000000000000000000000000815260040161221b91906126dd565b60405180910390fd5b81816040517f177e802f00000000000000000000000000000000000000000000000000000000815260040161225a929190613098565b60405180910390fd5b505050565b600073ffffffffffffffffffffffffffffffffffffffff168273ffffffffffffffffffffffffffffffffffffffff16036122da5760006040517f64a0ae920000000000000000000000000000000000000000000000000000000081526004016122d19190612647565b60405180910390fd5b60006122e883836000611584565b9050600073ffffffffffffffffffffffffffffffffffffffff168173ffffffffffffffffffffffffffffffffffffffff161461235c5760006040517f73c6ac6e0000000000000000000000000000000000000000000000000000000081526004016123539190612647565b60405180910390fd5b505050565b60008073ffffffffffffffffffffffffffffffffffffffff168373ffffffffffffffffffffffffffffffffffffffff161415801561241957508273ffffffffffffffffffffffffffffffffffffffff168473ffffffffffffffffffffffffffffffffffffffff1614806123da57506123d98484611321565b5b8061241857508273ffffffffffffffffffffffffffffffffffffffff166124008361152d565b73ffffffffffffffffffffffffffffffffffffffff16145b5b90509392505050565b6000604051905090565b600080fd5b600080fd5b60007fffffffff0000000000000000000000000000000000000000000000000000000082169050919050565b61246b81612436565b811461247657600080fd5b50565b60008135905061248881612462565b92915050565b6000602082840312156124a4576124a361242c565b5b60006124b284828501612479565b91505092915050565b60008115159050919050565b6124d0816124bb565b82525050565b60006020820190506124eb60008301846124c7565b92915050565b600081519050919050565b600082825260208201905092915050565b60005b8381101561252b578082015181840152602081019050612510565b60008484015250505050565b6000601f19601f8301169050919050565b6000612553826124f1565b61255d81856124fc565b935061256d81856020860161250d565b61257681612537565b840191505092915050565b6000602082019050818103600083015261259b8184612548565b905092915050565b6000819050919050565b6125b6816125a3565b81146125c157600080fd5b50565b6000813590506125d3816125ad565b92915050565b6000602082840312156125ef576125ee61242c565b5b60006125fd848285016125c4565b91505092915050565b600073ffffffffffffffffffffffffffffffffffffffff82169050919050565b600061263182612606565b9050919050565b61264181612626565b82525050565b600060208201905061265c6000830184612638565b92915050565b61266b81612626565b811461267657600080fd5b50565b60008135905061268881612662565b92915050565b600080604083850312156126a5576126a461242c565b5b60006126b385828601612679565b92505060206126c4858286016125c4565b9150509250929050565b6126d7816125a3565b82525050565b60006020820190506126f260008301846126ce565b92915050565b6000806000606084860312156127115761271061242c565b5b600061271f86828701612679565b935050602061273086828701612679565b9250506040612741868287016125c4565b9150509250925092565b6000602082840312156127615761276061242c565b5b600061276f84828501612679565b91505092915050565b612781816124bb565b811461278c57600080fd5b50565b60008135905061279e81612778565b92915050565b600080604083850312156127bb576127ba61242c565b5b60006127c985828601612679565b92505060206127da8582860161278f565b9150509250929050565b6000819050919050565b60006128096128046127ff84612606565b6127e4565b612606565b9050919050565b600061281b826127ee565b9050919050565b600061282d82612810565b9050919050565b61283d81612822565b82525050565b60006020820190506128586000830184612834565b92915050565b600080fd5b600080fd5b7f4e487b7100000000000000000000000000000000000000000000000000000000600052604160045260246000fd5b6128a082612537565b810181811067ffffffffffffffff821117156128bf576128be612868565b5b80604052505050565b60006128d2612422565b90506128de8282612897565b919050565b600067ffffffffffffffff8211156128fe576128fd612868565b5b61290782612537565b9050602081019050919050565b82818337600083830152505050565b6000612936612931846128e3565b6128c8565b90508281526020810184848401111561295257612951612863565b5b61295d848285612914565b509392505050565b600082601f83011261297a5761297961285e565b5b813561298a848260208601612923565b91505092915050565b600080600080608085870312156129ad576129ac61242c565b5b60006129bb87828801612679565b94505060206129cc87828801612679565b93505060406129dd878288016125c4565b925050606085013567ffffffffffffffff8111156129fe576129fd612431565b5b612a0a87828801612965565b91505092959194509250565b60008060408385031215612a2d57612a2c61242c565b5b6000612a3b85828601612679565b9250506020612a4c85828601612679565b9150509250929050565b7f4e487b7100000000000000000000000000000000000000000000000000000000600052602260045260246000fd5b60006002820490506001821680612a9d57607f821691505b602082108103612ab057612aaf612a56565b5b50919050565b6000606082019050612acb6000830186612638565b612ad860208301856126ce565b612ae56040830184612638565b949350505050565b7f536f6c64206f7574000000000000000000000000000000000000000000000000600082015250565b6000612b236008836124fc565b9150612b2e82612aed565b602082019050919050565b60006020820190508181036000830152612b5281612b16565b9050919050565b7f4f6e65207065722077616c6c6574000000000000000000000000000000000000600082015250565b6000612b8f600e836124fc565b9150612b9a82612b59565b602082019050919050565b60006020820190508181036000830152612bbe81612b82565b9050919050565b7f43616e6e6f742072656665722073656c66000000000000000000000000000000600082015250565b6000612bfb6011836124fc565b9150612c0682612bc5565b602082019050919050565b60006020820190508181036000830152612c2a81612bee565b9050919050565b7f4e487b7100000000000000000000000000000000000000000000000000000000600052601160045260246000fd5b6000612c6b826125a3565b9150612c76836125a3565b9250828202612c84816125a3565b91508282048414831517612c9b57612c9a612c31565b5b5092915050565b7f4e487b7100000000000000000000000000000000000000000000000000000000600052601260045260246000fd5b6000612cdc826125a3565b9150612ce7836125a3565b925082612cf757612cf6612ca2565b5b828204905092915050565b6000604082019050612d176000830185612638565b612d246020830184612638565b9392505050565b600081519050612d3a816125ad565b92915050565b600060208284031215612d5657612d5561242c565b5b6000612d6484828501612d2b565b91505092915050565b7f506c6561736520617070726f7665205553445420666972737400000000000000600082015250565b6000612da36019836124fc565b9150612dae82612d6d565b602082019050919050565b60006020820190508181036000830152612dd281612d96565b9050919050565b6000606082019050612dee6000830186612638565b612dfb6020830185612638565b612e0860408301846126ce565b949350505050565b600081519050612e1f81612778565b92915050565b600060208284031215612e3b57612e3a61242c565b5b6000612e4984828501612e10565b91505092915050565b6000612e5d826125a3565b91507fffffffffffffffffffffffffffffffffffffffffffffffffffffffffffffffff8203612e8f57612e8e612c31565b5b600182019050919050565b6000604082019050612eaf60008301856126ce565b612ebc6020830184612638565b9392505050565b600081905092915050565b6000612ed9826124f1565b612ee38185612ec3565b9350612ef381856020860161250d565b80840191505092915050565b6000612f0b8285612ece565b9150612f178284612ece565b91508190509392505050565b7f424d49433a204e465420697320536f756c626f756e6420284e6f6e2d7472616e60008201527f7366657261626c65290000000000000000000000000000000000000000000000602082015250565b6000612f7f6029836124fc565b9150612f8a82612f23565b604082019050919050565b60006020820190508181036000830152612fae81612f72565b9050919050565b600081519050919050565b600082825260208201905092915050565b6000612fdc82612fb5565b612fe68185612fc0565b9350612ff681856020860161250d565b612fff81612537565b840191505092915050565b600060808201905061301f6000830187612638565b61302c6020830186612638565b61303960408301856126ce565b818103606083015261304b8184612fd1565b905095945050505050565b60008151905061306581612462565b92915050565b6000602082840312156130815761308061242c565b5b600061308f84828501613056565b91505092915050565b60006040820190506130ad6000830185612638565b6130ba60208301846126ce565b939250505056fea264697066735822122045e0ee2cf2f049d90b975669fd53819e03c81a9d70f480132eefc0ca7bf4212864736f6c63430008140033",
  "linkReferences": {},
  "deployedLinkReferences": {}
}